:0300000002063ABB
:0C063A00787FE4F6D8FD75815602068139
:10043500456D707479205374616C6C3A20202020CE
:100445000047756964653A2020202020202020205F
:1004550020002020202020202020202020202020B7
:1004650020200047534D205374616C6C20416C6112
:10047500726D210053494D20496E697469616C693B
:100485007A65212100202043616C6C696E672055D7
:10049500702E2E2E200041540D0A0041542B434D41
:1004A50047463D310D0A0041542B434D47533D000E
:1004B500220D0A00313838343731333832383700B5
:1004C50041542B4950523D393630300D0A004154C4
:1004D5002B434E4D493D312C312C320D0A004154F0
:1004E5002B434C49503D310D0A0041542B43524397
:1004F5003D300D0A004154480D0A00415445310D67
:100505000A001A303132333435363738392B2D005D
:10051500506C65617365206E6F74652074686174D5
:1005250020746865207061726B696E6720737061F5
:0B05350063652069732066756C6C2103
:100846000122080156000144000121001145202023
:1008560020202020202020202020202020200020B2
:100866002123546865206E756D626572206F66205F
:100876007061726B696E672073706163652069735E
:030886002020200F
:10097A007F057E00120990D2927F057E00120990AF
:06098A008B807F057E005A
:10099000D3EF9400EE940040147D147C00ED1D70A4
:0D09A000011CED4C70F7EF1F70E61E80E3A8
:0109AD002227
:100AB700AB07C29112098CC29012097AC2927F05C4
:050AC7007E0002099011
:1009AE001209C77F201209C77F201209C77F2012A4
:0909BE0009C77F201209C77F2040
:1009C700AB07C29112098CD29012097AC2927F05A5
:0509D7007E0002099002
:1007B300C2927F38120AB77F0C120AB77F06120A59
:1007C300B77F01120AB77F80120AB7E4FAEA9004EE
:1007D3006893FF1209C77F017E001209900ABA10BD
:1007E300EC7FC0120AB7E4FAEA90047993FF120986
:0C07F300C77F017E001209900ABA10ECCA
:0107FF0022D7
:100ACC00AA05EF2480FF120AB7EA2430FF0209C7F7
:080800007A0479357BFF7F01CA
:060808008B088A09890A31
:10080E00E4F50CBF0105750C808006BF0203750C64
:10081E00C0E4F50BAF0C120AB7AB08AA09A90A85FA
:10082E000B827583001208CAFF1209C7050C050B4F
:07083E00E50BC3941040DD3F
:010845002290
:10000300D3EF9400EE940040147D6E7C00ED1D70E0
:0D001300011CED4C70F7EF1F70E61E80E33E
:0100200022BD
:100540002094167F057E0012000320940C3094FD49
:10055000E522D39400400215222093167F057E00E9
:1005600012000320930C3093FDE522C3940850023F
:100570000522E522B409004003020614900583F821
:1005800028287302059E0205A20205AE0205BA02E2
:1005900005C80205D60205E80205F2020604D2B239
:1005A0008002C2B2D2B4D2B5D2A1D2B38016C2B246
:1005B000D2B4D2B5D2A1C2B3800AC2B2C2B4D2B54B
:1005C000D2A1C2B3D2B6801AC2B2C2B4D2B5D2A13D
:1005D000C2B3C2B6800CC2B2C2B4C2B5D2A1C2B359
:1005E000C2B6D2B7D2A0802CC2B2C2B4C2B5D2A118
:1005F0008008C2B2C2B4C2B5C2A1C2B3C2B6C2B749
:10060000D2A08010C2B2C2B4C2B5C2A1C2B3C2B637
:10061000C2B7C2A0E52290050893F542AD227F0E35
:10062000120ACC12031BE522700BD2A22000031287
:0A0630000A59D20022C2A2C2002221
:10031B007FC7120AB7E522B40900400302043490E8
:10032B000331F8282873020425020417020409027A
:10033B0003F60203DD0203BF02039C0203740203F4
:10034B004C7F311209C77F321209C77F331209C79D
:10035B007F341209C77F351209C77F361209C77F51
:10036B00371209C77F380204317F311209C77F3238
:10037B001209C77F331209C77F341209C77F3512A1
:10038B0009C77F361209C77F371209C77F200204BE
:10039B00317F311209C77F321209C77F331209C768
:1003AB007F351209C77F361209C77F371209C27F03
:1003BB00200204317F311209C77F321209C77F3304
:1003CB001209C77F351209C77F361209BD7F20027C
:1003DB0004317F311209C77F321209C77F351209E9
:1003EB00C77F361209B87F200204317F311209C74B
:1003FB007F321209C77F351209B37F2080287F31E6
:10040B001209C77F351209AE7F20801A7F3112097E
:10041B00AE7F201209C77F20800C7F201209AE7F90
:0A042B00201209C77F201209C72222
:040A7F007FE87E038B
:100A8300D3EF9400EE940040147D6E7C00ED1D7056
:0D0A9300011CED4C70F7EF1F70E61E80E3B4
:010AA0002233
:100AA100758921758DFD758BFDD28E759850E4F594
:060AB10087D2ACD2AF2297
:0409DC00AB07AA06B5
:1009E0009000007C007D0AAF03AE021208F7C3E559
:1009F000829FE5839E5010758C3C758AB0D28C30F6
:070A00008DFDC28DA380DC17
:010A070022CC
:0F0945007FF47E01120A837A0479B57BFF7D016E
:060954008B088A09890AE4
:10095A00E4FFEFC39D5018AB08AA09A90A8F827554
:0F096A0083001208CAF5993099FDC2990F80E3F6
:01097900225B
:100741007BFF7A0579007D05120954120A7F7BFF30
:100751007A04799B7D031209547F0A7E00120A8371
:100761007BFF7A0479A07D0A1209547FD07E07129B
:100771000A837BFF7A0479D37D0E1209547FB87EF8
:100781000B120A837BFF7A0479E37D0A1209541262
:100791000A7F7BFF7A0479EF7D09120954120A7FDF
:1007A1007BFF7A0479C57D0C1209547FE87E030230
:0207B1000A83B9
:10002600E5216401600302031A7FD07E07120A836A
:10003600D20174082544F582E43400F583E0FFC359
:1000460094305003020315EF94404003020315E475
:10005600FFE5442F2408F582E43400F583E0FE74BE
:10006600452FF8A6060FBF10E8E545C394304006B5
:10007600E545944040307545207546207547207506
:100086004820754920754A20754B20754C20754DC2
:1000960020754E20754F20755020755120755220C1
:1000A600755320755420E546C394304006E54694C2
:1000B60040402D75462075472075482075492075A6
:1000C6004A20754B20754C20754D20754E20754F76
:1000D6002075502075512075522075532075542077
:1000E600E547C394304006E5479440402A754720CB
:1000F600754820754920754A20754B20754C20752A
:100106004D20754E20754F20755020755120755223
:1001160020755320755420E548C394304006E548C1
:1001260094404027754820754920754A20754B2014
:10013600754C20754D20754E20754F2075502075D5
:100146005120755220755320755420E549C39430CB
:100156004006E54994404024754920754A20754B70
:1001660020754C20754D20754E20754F20755020FA
:10017600755120755220755320755420E54AC39455
:10018600304006E54A94404021754A20754B20755B
:100196004C20754D20754E20754F20755020755199
:1001A60020755220755320755420E54BC39430407A
:1001B60006E54B9440401E754B20754C20754D202E
:1001C600754E20754F20755020755120755220753B
:1001D6005320755420E54CC394304006E54C9440BA
:1001E600401B754C20754D20754E20754F2075505F
:1001F60020755120755220755320755420E54DC346
:1002060094304006E54D94404018754D20754E20BB
:10021600754F2075502075512075522075532075E5
:100226005420E54EC394304006E54E944040157583
:100236004E20754F207550207551207552207553EC
:1002460020755420E54FC394304006E54F94404056
:1002560012754F2075502075512075522075532008
:10026600755420E550C394304006E5509440400F45
:10027600755020755120755220755320755420E510
:1002860051C394304006E5519440400C7551207599
:100296005220755320755420E552C394304006E52C
:1002A6005294404009755220755320755420E553E9
:1002B600C394304006E55394404006755320755468
:1002C60020E554C394304006E554944040037554E9
:1002D600207A04798A1208047B007A0079457F0225
:1002E6001208087FD07E07120A837BFF7A0479FA08
:1002F6007D041209547FD07E07120A83120A33C284
:10030600011208007BFF7A0479467F02120808E48E
:04031600F556F52182
:01031A0022C0
:100909007BFF7A0479AC7D081209541209457F648A
:100919007E00120A837B007A0079457D0B12095407
:100929007F647E001209497F647E00120A837A047B
:0C09390079B61209507F647E00020A8328
:100A3300120909120A7F7B007A0079237D211209AA
:100A430054120A7F7BFF7A0579077D011209547FCF
:060A5300647E00020A832C
:10088A007BFF7A0479AC7D081209541209457F640A
:10089A007E00120A837BFF7A0479B97D0B12095410
:1008AA007F647E001209497F647E00120A837BFFFF
:1008BA007A0479B67D011209547F647E00020A83A4
:100A590012088A120A7F7BFF7A0579157D2B120904
:100A690054120A7F7BFF7A0579077D011209547FA9
:060A7900647E00020A8306
:100A0800C2A2120AA11207B37F327E001209DC12B9
:100A180007411208007BFF7A0479467F0212080812
:0B0A280020010312054012002680F59B
:030023000206C60C
:1006C600C0E0C083C082C0D0C29874002556F582AF
:1006D600E43400F583E599F0E599B42B0385564497
:1006E60074012544F582E43400F583E064437040E8
:1006F60074022544F582E43400F583E0644C7030DE
:1007060074032544F582E43400F583E0B44921748A
:10071600042544F582E43400F583E0B450127405F0
:100726002544F582E43400F583E0B43A03752101EB
:0B0736000556D0D0D082D083D0E03236
:10064600020A08E493A3F8E493A34003F68001F2B8
:1006560008DFF48029E493A3F85407240CC8C333B5
:10066600C4540F4420C8834004F456800146F6DF84
:10067600E4800B0102040810204080900846E47EC6
:10068600019360BCA3FF543F30E509541FFEE49379
:10069600A360010ECF54C025E060A840B8E493A340
:1006A600FAE493A3F8E493A3C8C582C8CAC583CA6B
:1006B600F0A3C8C582C8CAC583CADFE9DEE780BE23
:01088900006E
:1008CA00BB010CE58229F582E5833AF583E02250E3
:1008DA0006E92582F8E622BBFE06E92582F8E2222D
:0D08EA00E58229F582E5833AF583E4932247
:1008F700EF8DF0A4A8F0CF8CF0A428CE8DF0A42E15
:02090700FE22CE
:00000001FF
